:020000040000fa
:080000000002040000000000f2
:020000040000fa
:04000800f6020000fc
:020000040000fa
:04000c00f6020000f8
:020000040000fa
:04001000f6020000f4
:020000040000fa
:04001400f6020000f0
:020000040000fa
:04001800f6020000ec
:020000040000fa
:04001c00f6020000e8
:020000040000fa
:04002000f6020000e4
:020000040000fa
:04002400f6020000e0
:020000040000fa
:04002800f6020000dc
:020000040000fa
:04002c00f6020000d8
:020000040000fa
:04003000f6020000d4
:020000040000fa
:04003400f6020000d0
:020000040000fa
:04003800f6020000cc
:020000040000fa
:04003c00f6020000c8
:020000040000fa
:04004000f6020000c4
:020000040000fa
:04004400dc020000da
:020000040000fa
:04004800f6020000bc
:020000040000fa
:04004c00f6020000b8
:020000040000fa
:04005000f6020000b4
:020000040000fa
:04005400f6020000b0
:020000040000fa
:04005800f6020000ac
:020000040000fa
:04005c00f6020000a8
:020000040000fa
:04006000f6020000a4
:020000040000fa
:04006400f6020000a0
:020000040000fa
:04006800f60200009c
:020000040000fa
:04006c00f602000098
:020000040000fa
:04007000f602000094
:020000040000fa
:04007400f602000090
:020000040000fa
:04007800f60200008c
:020000040000fa
:04007c00f602000088
:020000040000fa
:04008000f602000084
:020000040000fa
:04008400f602000080
:020000040000fa
:04008800f60200007c
:020000040000fa
:04008c00f602000078
:020000040000fa
:04009000f602000074
:020000040000fa
:04009400f602000070
:020000040000fa
:04009800f60200006c
:020000040000fa
:04009c00f602000068
:020000040000fa
:0400a000e602000074
:020000040000fa
:0400a400ee02000068
:020000040000fa
:0400a800f60200005c
:020000040000fa
:0400ac00f602000058
:020000040000fa
:0400b000f602000054
:020000040000fa
:0400b400f602000050
:020000040000fa
:0400b800f60200004c
:020000040000fa
:0400bc00f602000048
:020000040000fa
:0400c000f602000044
:020000040000fa
:0400c400f602000040
:020000040000fa
:0400c800f60200003c
:020000040000fa
:0400cc00f602000038
:020000040000fa
:0400d000f602000034
:020000040000fa
:0400d400f602000030
:020000040000fa
:0400d800f60200002c
:020000040000fa
:0400dc00f602000028
:020000040000fa
:0400e000f602000024
:020000040000fa
:0400e400f602000020
:020000040000fa
:0400e800f60200001c
:020000040000fa
:0400ec00f602000018
:020000040000fa
:0400f000f602000014
:020000040000fa
:0400f400f602000010
:020000040000fa
:0400f800f60200000c
:020000040000fa
:0400fc00f602000008
:020000040000fa
:04010000f602000003
:020000040000fa
:04010400f6020000ff
:020000040000fa
:04010800f6020000fb
:020000040000fa
:04010c00f6020000f7
:020000040000fa
:04011000f6020000f3
:020000040000fa
:04011400f6020000ef
:020000040000fa
:04011800f6020000eb
:020000040000fa
:04011c00f6020000e7
:020000040000fa
:04012000f6020000e3
:020000040000fa
:04012400f6020000df
:020000040000fa
:04012800f6020000db
:020000040000fa
:04012c00f6020000d7
:020000040000fa
:04013000f6020000d3
:020000040000fa
:04013400f6020000cf
:020000040000fa
:04013800f6020000cb
:020000040000fa
:04013c00f6020000c7
:020000040000fa
:04014000f6020000c3
:020000040000fa
:04014400f6020000bf
:020000040000fa
:04014800f6020000bb
:020000040000fa
:04014c00f6020000b7
:020000040000fa
:04015000f6020000b3
:020000040000fa
:04015400f6020000af
:020000040000fa
:04015800f6020000ab
:020000040000fa
:04015c00f6020000a7
:020000040000fa
:04020800f6020000fa
:020000040000fa
:04020c00f6020000f6
:020000040000fa
:04021000f6020000f2
:020000040000fa
:04021400f6020000ee
:020000040000fa
:04021800f6020000ea
:020000040000fa
:04021c00f6020000e6
:020000040000fa
:04022000f6020000e2
:020000040000fa
:04022400f6020000de
:020000040000fa
:04022800f6020000da
:020000040000fa
:04022c00f6020000d6
:020000040000fa
:04023000f6020000d2
:020000040000fa
:04023400f6020000ce
:020000040000fa
:04023800f6020000ca
:020000040000fa
:04023c00f6020000c6
:020000040000fa
:04024000f6020000c2
:020000040000fa
:04024400dc020000d8
:020000040000fa
:04024800f6020000ba
:020000040000fa
:04024c00f6020000b6
:020000040000fa
:04025000f6020000b2
:020000040000fa
:04025400f6020000ae
:020000040000fa
:04025800f6020000aa
:020000040000fa
:04025c00f6020000a6
:020000040000fa
:04026000f6020000a2
:020000040000fa
:04026400f60200009e
:020000040000fa
:04026800f60200009a
:020000040000fa
:04026c00f602000096
:020000040000fa
:04027000f602000092
:020000040000fa
:04027400f60200008e
:020000040000fa
:04027800f60200008a
:020000040000fa
:04027c00f602000086
:020000040000fa
:04028000f602000082
:020000040000fa
:04028400f60200007e
:020000040000fa
:04028800f60200007a
:020000040000fa
:04028c00f602000076
:020000040000fa
:04029000f602000072
:020000040000fa
:04029400f60200006e
:020000040000fa
:04029800f60200006a
:020000040000fa
:04029c00f602000066
:020000040000fa
:0402a000e602000072
:020000040000fa
:0402a400ee02000066
:020000040000fa
:0402a800f60200005a
:020000040000fa
:0402ac00f602000056
:020000040000fa
:0402b000f602000052
:020000040000fa
:0402b400f60200004e
:020000040000fa
:0402b800f60200004a
:020000040000fa
:0402bc00f602000046
:020000040000fa
:0402c000f602000042
:020000040000fa
:0402c400f60200003e
:020000040000fa
:0402c800f60200003a
:020000040000fa
:0402cc00f602000036
:020000040000fa
:0402d000f602000032
:020000040000fa
:0402d400f60200002e
:020000040000fa
:0402d800f60200002a
:020000040000fa
:0402dc00f602000026
:020000040000fa
:0402e000f602000022
:020000040000fa
:0402e400f60200001e
:020000040000fa
:0402e800f60200001a
:020000040000fa
:0402ec00f602000016
:020000040000fa
:0402f000f602000012
:020000040000fa
:0402f400f60200000e
:020000040000fa
:0402f800f60200000a
:020000040000fa
:0402fc00f602000006
:020000040000fa
:04030000f602000001
:020000040000fa
:04030400f6020000fd
:020000040000fa
:04030800f6020000f9
:020000040000fa
:04030c00f6020000f5
:020000040000fa
:04031000f6020000f1
:020000040000fa
:04031400f6020000ed
:020000040000fa
:04031800f6020000e9
:020000040000fa
:04031c00f6020000e5
:020000040000fa
:04032000f6020000e1
:020000040000fa
:04032400f6020000dd
:020000040000fa
:04032800f6020000d9
:020000040000fa
:04032c00f6020000d5
:020000040000fa
:04033000f6020000d1
:020000040000fa
:04033400f6020000cd
:020000040000fa
:04033800f6020000c9
:020000040000fa
:04033c00f6020000c5
:020000040000fa
:04034000f6020000c1
:020000040000fa
:04034400f6020000bd
:020000040000fa
:04034800f6020000b9
:020000040000fa
:04034c00f6020000b5
:020000040000fa
:04035000f6020000b1
:020000040000fa
:04035400f6020000ad
:020000040000fa
:04035800f6020000a9
:020000040000fa
:04035c00f6020000a5
:020000040000fa
:100400000f8e20000edf20000e018800000000008b
:10041000000020000000e000020032000001200087
:100420002002880014000700e70007000000e00039
:1004300003003a00c0fd2100010020000200370047
:100440000000200001002000810f70000100320038
:1004500014000700000020000000e000020032004d
:1004600000000200000000006821020000000000ff
:100470000040da000000fe004440a9000003200014
:100480000000e0000300320000002000a00188000e
:100490004440a800000006008a1f78008b1f7800e7
:1004a0000000060091018800800478000000eb0045
:1004b0001a003700e284440032a0b4009905ba0063
:1004c000e284440032a0b4009906ba00e2844400f9
:1004d00032a0b4000006eb00476fde00fd07b2005b
:1004e000636ce10003003a00ebff07000000eb0043
:1004f0000a003700606ce10004003a00005deb0088
:100500008b05e900fdff3e00040037006168e10053
:10051000010032000086eb000b00070019c7ba008b
:100520001905ba000e04e00003003a000a00e000da
:10053000e0ff3a0000000600fe07b2009e018800be
:100540008a047800f5ff3700395dba008b05e900b1
:100550000c003200295dba008b05e900080032006a
:100560000c00e00003003a00e284440032a0b40032
:10057000f5ff370019ddba008b05e900faff3a00f4
:100580008904e800e184440032a0b40000000600c1
:10059000000000000000000000000000000000005b
:1005a000000000000000000000000000000000004b
:1005b00000000000000000000000fa0084e0a90034
:1005c00011e1a9000080fa00004006000000fa00d6
:1005d00087c0a9000080fa00004006000000fa0071
:1005e00087e0a9000080fa00004006000040da0021
:1005f0000000fe000a00fa0011002000b1bf9f00b9
:10060000c0bf9f006a8057005e0a07004fb897007e
:100610000080fa00000006000a00fa00e20f500015
:1006200034003e00e0468000e10f5000030032003d
:10063000e20f500011003a000c00370003222000a6
:100640000300e00001003a000040da002002e2006e
:10065000020035002822ef0021e2a8002342ab006f
:100660000d003a002342a8000b00370003232000ae
:100670000300e00001003a000040da003002e2002e
:10068000020035003822ef0031e2a8003342ab000f
:1006900001003a003342a800820178000b003700c5
:1006a0003102fb00e10f500004003a002322ab00ae
:1006b000feff3a0024118800030037003322ab000c
:1006c000feff3a00a41188008301e9000300e00066
:1006d000f3ff3a00e10f500003003a002302ab00a1
:1006e000feff32000b0037003302ab00feff32008a
:1006f0000800370033002000b3bf9f00c0bf9f0039
:10070000d1bf9f00e2bf9f006a8057001f0a070009
:100710006fb99700020078000080fa000000060020
:100720000a00fa0051002000b1bf9f00c0bf9f0027
:100730006a805700170a07005fb897000080fa0028
:1007400000000600889fbe0080047800f04680000c
:100750000000e00004003a000e0007000084eb00f7
:100760000000e00008003500f84680000900e000c5
:100770000500320009004400060007000000e00008
:1007800001003d000084eb00080078004f04be002b
:1007900000000600800078000100e00003003a003d
:1007a00000002000f0468800000005000080eb00fb
:1007b00002002000828f500002003e00f1468800b7
:1007c0000000eb000000060000000500889fbe004e
:1007d0008a9fbe008c1f780099000700a00033009c
:1007e00003866c006450e1002e0032006420e100ba
:1007f000330032006150e1002f0032006120e1003f
:100800003100320085855500eb07b000090020005b
:1008100008042000050037000804440089844c00c7
:100820000a0031000603430087834b000001530098
:1008300081815b00f8ff33000203be000800a000c6
:100840000804440089844c00f6ff3900c639dd00f5
:100850008301730001003200130020008904d100dd
:100860000884d3000998a300050032000800a700ff
:100870000300a0008904d1000884d3008b05e800a0
:100880008904d1000884d3000001eb000281d2006a
:100890003000070001f0a1000cf0a70001f0a0005b
:1008a000780037006420e1007a0032000801be00c1
:1008b0000200be00f7ff37006120e1007500320042
:1008c0006000b800f3ff37000000200001f82700a7
:1008d000f0ff37000001be00440007000470a700cd
:1008e00003f0a10003f8a30013003a006509b1006a
:1008f00010003200090035006928e10002003500cf
:100900000100280000000500000040008180480030
:100910008502e900fcff3a0000000600f88f420063
:10092000050035008100d1000080d3008502e80079
:10093000fcff3a00000006008000eb00000005000c
:100940004f89de0082017800850237006011b8000f
:100950009302370081002000618055000b003d00ac
:100960000b00200061fe2f000100e1001d0034009b
:1009700082817100610164008904d1000884d30080
:100980000000e800faff3a007100200061006400f6
:10099000030070000200600009003200610444009e
:1009a000e0844c000988a500050032008b05e800b2
:1009b0006808e10002003a008904d1000884d300ed
:1009c000f20f20000258e10005003d00c75ddd0088
:1009d000f907b20089807500080078000000060061
:1009e0000bf827008b00780000000500c70ade0026
:1009f000f107b200f50fb20008003200e1cf42006b
:100a0000020032000170a00024000500810f700078
:100a1000010032000408050044000500810f700049
:100a200002003a00140005008502e90000004000c1
:100a300081c04800fcff3b000170a00024000500bd
:100a40000004be00e9ff07000003be000405be006d
:100a50000200be00e5ff0700844f7500000006009d
:100a60000200be006450e100050036006420e10091
:100a7000020036000968a30001003a000800be0029
:100a80000160a0004f0678004f05be004f04be0075
:100a900000000600f0ff2f00f1ff2700f9ff3700ec
:100aa000889fbe008a9fbe008c1f7800e4ff07006d
:100ab000ebff330003866c006450e1002400320039
:100ac0006420e100270032006150e1002200320082
:100ad0006120e100210032008b854200eb07b1006c
:100ae0000134b800003ab8000804420089844a0082
:100af000013ab8000030b8008880400009014a007f
:100b000004003300000040008180480002014900d9
:100b10008b05e900c909dd00830170000100320086
:100b200013002000c814de004814dd004709de0071
:100b30001200b200c808de000884700085ff0700bc
:100b400001f0a1000cf0a70001f0a000cdff3700dc
:100b50006120e100cfff32000801be000200be00ac
:100b6000f7ff37006150e100fcff3a00c9ff370092
:100b70000c00fa00889fbe008a9fbe008c9fbe00ba
:100b8000afff07000206be00840578000200be0029
:100b900002002000a601070005003a008b02b30006
:100ba00012002000a201070001003a00f8856d0044
:100bb0000c01be00c60007000800be009b0032000a
:100bc0000b08a3009e003a000df0a7000be0a00068
:100bd00009f0a7000bf0a00009f0a1000801be0079
:100be000bb0007000bf0a6009500320001003c009e
:100bf0000bd0a0008acf7500b20033006000b800af
:100c00006250e10099003900a1003e000b28a300ca
:100c1000a2003a000bf8a300060032000b58a30014
:100c2000a70032000801be00a90007000800be00ae
:100c3000940032000800be00b00007000004be00af
:100c4000050578000bf0a7000b30a6000bf0a10003
:100c50005b079800324f200053f323009b010700ed
:100c600005003d000800be0012002000fb01070047
:100c70000004be000a05e9004a0798006150b90067
:100c80002fff0700008fbe000c01be0084ff07008d
:100c900092010700300798000100e00002003d00cb
:100ca00060001000e0801800f2ff2700820f500063
:100cb000e08f580064003e000c00be008701070072
:100cc00020079800f2072000820f5000e08f5800a4
:100cd00005003c0012f82f00f3ff2f00820f500098
:100ce000838f580009003d000a00e0000300320035
:100cf00001003c000201ea00020578006000b80033
:100d0000200798003a079800190037003e0090002d
:100d10006100b9000aff0700809fbe000c00be0002
:100d20004109dd004811de007208b10040010700f2
:100d30000005be001e01be0059ff07004f01be00a6
:100d40007b000700809fbe000c00be000a01be00b1
:100d5000770007001e01be0051ff07004f01be00d3
:100d6000740007008221270013f323004cff0700c3
:100d70000005be002e0090006100b900f0fe0700e3
:100d800001f0a2000c01be006a0007000006be00d0
:100d90000800be00d30107000c01be0040ff0700a1
:100da0000a01be0063000700809fbe004a000700e2
:100db0002e0590000af0a7000a05ea00050037009a
:100dc0000800be000801be0035ff07000004be0099
:100dd0000c00be000801be000a00a70030ff07009b
:100de0000006be000a05d100f5ff3a005e01900042
:100df00002e0a600030037000001be003600070035
:100e000072fe07000004be004f00be00a6000700ef
:100e10000801be0022ff07003e0190008f0107007d
:100e2000de0590000bf0a70001f0a2004f06be0007
:100e30004f05be004f04be000080fa00000006000f
:100e400025000700f9ff3700270007006000b80001
:100e50000bd0a7000bc0a0000be0a7000bc0a200a6
:100e60000bc0a70001f82700f0ff37000df8a30022
:100e7000020032001e000700190007000bf8a30053
:100e8000eaff32000b30a70001f0a200e7ff3700b5
:100e90000df8a300f9ff3a00f7ff37000801be0084
:100ea0000b000700e6ff320001003c000df0a2003d
:100eb0006000b8000df0a70009000700dbff370055
:100ec0000b000700f1ff2700f0ff2f00d7ff3700ce
:100ed00001000700fd00370001f8230000000500b5
:100ee00001f8270000000500200220000100370063
:100ef0001002200070408800000006000003be00c1
:100f0000bafe07006220e100020032000600be00c7
:100f100005000500e507b100f107b20004f0230069
:100f20008480700007f0a70001f0a00024000500f5
:100f300003f0a200889fbe008a9fbe008c1f78002d
:100f4000bffe0700c6fe33006450e1004f003200d0
:100f50006420e1005200320003826c0007003b0075
:100f60000905d0000306d000820f54000c065d0076
:100f7000020039000200320089017800030678007f
:100f80008582550004003d000003fd008103fd0043
:100f90008502ea008b854200840f720002003b004c
:100fa00060001000e08018006011b8000005eb0040
:100fb0007a28e1000a00390006007800c75ddd00ec
:100fc000f707b200878075002d003700828171001d
:100fd0000a017800610560008180d1000080d300a3
:100fe0008502e900f9ff3b000604400087844800c1
:100ff00002003b0060041400e0841c000988a30088
:10100000070032008a8171008281710061016400f1
:101010008904d1000884d3008b05e800170037004d
:101020000978a30013003a000b00e000130034001d
:101030008b05e9000804440089844c000a447400cc
:101040000978a3000d003a000b00e000070034000f
:101050008b05e9000804440089844c0001003a0033
:101060000b0020000978a300f7ff32000001eb001d
:1010700002003700828171000a01780035fe070006
:101080000cf0a70001f0a0007efe37006420e10014
:1010900002003a00838f6c007efe33000801be0020
:1010a0000200be0077fe3700889fbe008a9fbe0008
:1010b0008c9fbe000004be004cfe07000800be006e
:1010c0006420e10048003e005500320072212700f4
:1010d000132b24007f00070047003c000800be00df
:1010e000c2ec2800e32c2c007800070047003500f4
:1010f0000800be0001f0a100020020000338230018
:1011000072000700430035000800be00b2a32a00a9
:1011100083fb230062fe07000200200003f023008f
:1011200001f0a70003f0a00082ff07006b0007009a
:101130000005be0002fe070001f0a2000006be008e
:101140000200280013f3230055fe07000801be002b
:1011500078ff0700809fbe000c00be003208280008
:10116000e3952b004efe07004f01be0071ff070004
:101170000006be000001be0049fe0700809fbe00c1
:101180004241250083b8230045fe070002002000ed
:1011900003e8230067ff07000c01be0040fe0700c4
:1011a0000006be004f00be00f2f92b00c3d423009e
:1011b0003bfe07000200200003f023005dff070054
:1011c0000c01be005aff07000001be000c00be006b
:1011d0007efd07000200200003f0230055ff0700fa
:1011e000610145009d0007004f06be004f05be008f
:1011f0004f04be000000060001f827000000200098
:101200002202200072408800f7ff37006000b8001b
:10121000fbff370001f8230000002000f2ff370039
:1012200009f8a300f0ff32006000b800eeff3700bd
:10123000889fbe008a9fbe000003be00ebfd070032
:101240008505780082815200020020006220e100c2
:1012500004003a00f307b100040035007718e100fc
:10126000040035000600be00140037006000b8001e
:101270000f003700f50f2000faff2f008502d10084
:101280000a85d3008301e900fcff3b0081846200f2
:1012900000046500890f7400f2ff32008582ea00c5
:1012a0000a85ea008184620000046500a9fd070048
:1012b00007f0a70001f0a0000081eb000200e000b1
:1012c0004f05be004f04be000000060014002000c1
:1012d000db003700f4ff2f00d90037000001be000b
:1012e000c2fd07000470a70003f0a1006509b1006a
:1012f000160032000d0035006828e10006003500b8
:10130000f0ff2f00f1ff27000300e00013003b0077
:101310000100280000000500000040008180480016
:101320008502e900fcff3a0008003700f88f420010
:1013300002003c008000eb00000005008100d100ad
:101340000080d3008502e800fcff3a000300e000c3
:1013500002003b0060001000e08018000000060062
:10136000881f7800030478000300e00007003d00b8
:1013700060001000e080180060011900e081190091
:1013800002003b0001f02d000300370004000700bd
:1013900008f0a70001f0a0004f047800000006004c
:1013a000889fbe008a9fbe00008270000402710008
:1013b00004827100260032000004be000200be005c
:1013c0006011b8006b092000950220000182cf0057
:1013d0000a0039000541b1000082cf000700390042
:1013e0000541b1000982cf00040039000541b10078
:1013f0000882cf00010039000541b10005425200ca
:10140000120032000a003b00828171006101640019
:101410008100d1000080d3008984d3000884d300e8
:101420008b05e8000442e800f7ff3a0007003700a8
:101430000804440089844c00000048008180480072
:101440008b05e9000442e900f9ff3a0041fd07007d
:101450004f05be004f04be00000006000003be00a2
:1014600062fd07006220e100020032000600be00bb
:101470000000060085024100e30f20000328e10080
:1014800005003c00a3fe2f000328e10007003d00fb
:101490000500200001003700f50f20002002200089
:1014a000704088006000b80008003700130020007a
:1014b0008381520005003d008100d1000080d300ef
:1014c0008301e800fcff3a0005002000c72add0088
:1014d000f107b2008580700007f0a70001f0a000be
:1014e00000000600889fbe008a9fbe008c9fbe0041
:1014f00082fe0700850478000005be006420e1003c
:1015000049003e006220e10003003200090035007e
:101510000bf8a300440032000bf8a30008003200cf
:101520001002200070408800f0ff2f00f1ff27001c
:101530003d00370001f82f00000020003a0037007e
:101540003d0007007afe07000006be000a00be004c
:10155000324f200053f323005eff070006003400e3
:101560000c00be003400070071fe07000006be003c
:101570000a00be00020037008904e9000c00be002a
:101580002d00070046fd07002b00070069fe07003d
:101590000001be000c00be008cfc07000005be0070
:1015a0000001be003efd07000006be00a2f32300be
:1015b000430d2c005ffe0700809fbe000c00be00a4
:1015c000d2e32700d3f02b0035fd07004f01be000a
:1015d0007efc07000006be000a01be0030fd0700c9
:1015e0000a01be0053fe07000006be006148b900b4
:1015f000d3fc07000005be0032082800e3952b004d
:1016000027fd07000c01be004afe07000006be00d1
:101610000a00be000200280013f3230020fd07008b
:101620000c01be0043fe07004f06be004f05be0082
:101630004f04be000000060003f023000200050076
:10164000889fbe008a9fbe00841f7800fcfc0700b4
:101650004f00780011003300f0ff2f00838f6c00e3
:1016600006003b00040565000a00a70008003700db
:1016700009f0a6001000200008003700820f540077
:10168000838f5c00030039001000200001003e0041
:101690000000200009f0a7000000ea004f05be008e
:1016a0004f04be000000e00000000600800178004a
:1016b00002003700b15978000201e9000200e000a1
:1016c000fcff3a00000006008001780002003700ad
:1016d000815978000201e9000200e000fcff3a00b5
:1016e0000000060000017800820178003204e0006a
:1016f000fdff3a0003017800b141780003597800fa
:101700000304e000fcff3a0000000600000178003e
:10171000b1417800035978000304e000fcff3a006f
:101720000000060080007800010178003104e0002c
:10173000fdff3a000000510000000600889fbe0037
:10174000800478000203be00010478006149b800fb
:10175000898fd2008381d200080278000600be0083
:101760000e060700088044004f04be00000006007b
:10177000881f78000204780008017800cbff07007a
:10178000080040004f047800000006000000fa0046
:10179000881f7800000478006a825700bfb997005c
:1017a00008017800e1b9200080bb20001600070086
:1017b0000000e000020035008040eb00017478007a
:1017c0004f0478000080fa0000000600889fbe00e9
:1017d000000478000203be0081047800080278004b
:1017e00089017800120020000600be00ef03070008
:1017f000890f5000010032000004eb00080078005f
:101800004f04be00000006006800fa00889fbe007a
:101810008a9fbe0080047800010478008205780069
:10182000030578008400780000f92f000f004000c5
:10183000dc030700d98f9f00fb8f9f000000eb00a7
:10184000a09f9f00e88f9f009a84fb000904fb0083
:101850008904ea00cf4cde0050022000800f5400c3
:101860000d003200e18f54000b003a0009017800ae
:101870008a0078007f889700df89970003000100c5
:10188000f08f9f000000e000950032002f98970035
:101890000000e800a09f9f000905450050022000bd
:1018a000800f5400040032000800e000e6ff3a0018
:1018b0002f9897008b0037000000eb00809f9f005f
:1018c000f0979f00e0979f00d0979f00c0979f00e0
:1018d000b0979f0007003700e18c20000100500006
:1018e00000004000218c200061007800cf98970014
:1018f00001007000c09f9f000a047800080578006e
:10190000ba4478008900fb00e08c200090010700b9
:101910000000e000f0ff3a00a1c2b30081cf540004
:101920000e003a008f8897000180e900808f9f00a9
:1019300010007800b09f9f000000e00005003d000f
:101940000000ea00b09f9f004f9897000020a00081
:10195000c09f9f000804e80010003700b09f9f0060
:10196000880078000000eb0005003700f3ff270037
:10197000830f5000020032006a02b90004004100e7
:1019800001047800880078003101fb000203b100f7
:10199000e90f5100f5ff3600b09f9f00e0c2b30091
:1019a000984f1000020032000080eb001900370051
:1019b000a0c2b300d84f100007003a008f889700ec
:1019c0000180e900808f9f0010007800909f9f00a9
:1019d0000804e800100037000000eb00909f9f0013
:1019e0008800780005003700f3ff2700830f5000c0
:1019f000020032006a02b9000400410001047800cc
:101a0000880078003101fb000203b100e90f5100aa
:101a1000f5ff3600909f9f00984478008900fb00f6
:101a2000a08b20004a0107000000e0000200320005
:101a30000804e800010037008044eb00a97f9f0004
:101a400080c6b30080cf540006003a0098cf14003f
:101a500010003a0066405000a07f9f000804e80094
:101a60000c003700c0c6b30080cf540009003a0014
:101a700098cf140007003a0067404000d84f10008c
:101a800002003a006e4050000100370010c7b3005a
:101a9000a07f9f001801fb00c3fb2f008f81410036
:101aa00001f92f008f80400020f92f000f00400027
:101ab000150007000000e00009003a00c1fb2f00fc
:101ac0008f80400020f92f000f0040005b020700cc
:101ad0000000e000020035000805e8005aff37006a
:101ae0000080eb004f05be004f04be000080fa00ee
:101af00000000600030278008201780001017800ee
:101b000061be200040ff3700889fbe008a9fbe0054
:101b1000e4c6b300844f5100be00320010003c0008
:101b20006b425200844f51001800320005003c0007
:101b300054c2b300844f5100f600320084c5b30094
:101b40000f00370044c6b300844f51001400320028
:101b500065424200844f5100f1003a001000370006
:101b600004c7b300844f5100dd0032005600350039
:101b700065424200844f51005300320063424200ec
:101b8000844f5100e6003a004f0037001181e90010
:101b900082087800a008900012417800de0037002b
:101ba000006a9000c5c6b300854f520007003a0096
:101bb0009102780064825200840878001402be000a
:101bc0004fabde00860378001400370015c7b30062
:101bd000854f520003003a00110478006802540057
:101be00005003700a5c6b300854f520006003a0035
:101bf0009104780068825400840878005403be0081
:101c00004402be00050037001182e9008408780014
:101c100014027800cfa2de00612bb9000498be0048
:101c20000690be008068900088c6b30088cf500040
:101c30000d00320028c6b30088cf500004003a00df
:101c40000402fb00cfa2de00612bb90008003700c0
:101c500048c7b30088cf50000300320066444400f8
:101c600088cf500004003a00cfa2de00612bb900fb
:101c70000498be000690be003002be002003be00e5
:101c8000a0089000e00f5200e08f5a00e00f5b00c8
:101c9000e08f5b0002003d00d4c2b30008003700b3
:101ca000301290000418a30002003200b4c2b30046
:101cb000030037000408a3005100320004c2b3003f
:101cc00084f178004c003700006a9000c5c6b3006c
:101cd000854f520008003a00110578006402550053
:101ce000840878001404be006055b8000802be00e5
:101cf0000a03be001400370015c7b300854f520019
:101d000003003a009104780068825400050037000f
:101d1000a5c6b300854f520006003a0011057800b1
:101d200068025500840878005403be004402be00d7
:101d3000050037001182e900840878001402780059
:101d40008002eb006033b8000498be000690be002d
:101d50008068900088c6b30088cf50000d00320024
:101d600028c6b30088cf500004003a000482fb006c
:101d70008002eb006033b8000800370048c7b300aa
:101d800088cf5000030032006644440088cf5000e2
:101d900004003a008002eb006033b8000498be00f3
:101da0000690be00b01090000138a300140032006d
:101db0003002be002003be00e00f5200e08f5a0048
:101dc000e00f5b00e08f5b000d00320081c7b300c5
:101dd000814f51000300320081c5b300814f510093
:101de00007003a00a008900004c3b30084f1780013
:101df0008100e80082f178008100e8002108980065
:101e0000a008900081814100730098008240780012
:101e10003e00370080699000c4c6b3001181e9001c
:101e200084cf5100220032000a003c00644252007c
:101e300084cf51002500320004c2e80084cf510055
:101e4000130032006842520084cf51001e003a0055
:101e50000a00370044c7b30084cf51001b00320092
:101e60006642420084cf510018003200694252009d
:101e700084cf510014003a00050037008208780032
:101e80009200780020609000804878002c00370095
:101e9000820878009200780010129000cfa2de0035
:101ea000612bb9008498be008690be0024003700e4
:101eb000820878009200780010119000cf91de0027
:101ec0008288be001e0037001181e9008208780078
:101ed00092007800101090008008780018003700f9
:101ee0001181e9008208780012027800cfa2de009a
:101ef000612bb9000498be000690be00a0089000b7
:101f0000818141007300980081c7b3001c00070065
:101f10000b003700a008900082f17800060037001f
:101f2000a0089000818141000204e00001003a0015
:101f300052c2b300824978008100e800210898006d
:101f40000000eb004f05be004f04be00000006007d
:101f5000020037000304e0000600320000017800b0
:101f600002007800b041780081cf5100f9ff3a00bb
:101f7000010037000001eb000200780000000600bd
:101f8000fc874700889fbe008a9fbe008c9fbe00d2
:101f90008e1f78000006780080c5b30080cf500007
:101fa0000a0032007740400080cf50000a00320023
:101fb0006940400080cf50000b003200908a200022
:101fc00080bf9f00ae0020000a00370082892000f9
:101fd00082bf9f0006003700938a200083bf9f00c6
:101fe0008e00200003003700948a200084bf9f00e9
:101ff0000e0120003c02be002c03be000605be0000
:102000000404be0040c6b30080cf5000030032007d
:102010006540400080cf50000b003a00e00f5200b6
:10202000e08f5a00e00f5b00e08f5b0006003d0090
:102030006000b8006011b8000404500085845800a6
:102040000605590087855900e80f57000400320043
:1020500040002000f00f570038003a000100370020
:1020600030002000e00f5400e08f5c00e00f5d00c6
:10207000e08f5d0004003a008c1090008d0120007c
:102080000100e000060032008e00e9008880600058
:102090008fba9700e5c07800f1ef9f007d01200026
:1020a000800078008100e900050033008b05d10035
:1020b0000a85d3008984d3000884d300f9ff370050
:1020c000089ebe000a96be00120037008d06e90089
:1020d0008e00e900848060000fb99700e2c17800ab
:1020e00082fd2f000f01410003f17e008000780087
:1020f0008100e900050033008783d1000683d30007
:102100008582d3000482d300f9ff3700049ebe000d
:102110000696be003c02be002c03be00e00f52003b
:10212000e08f5a00e00f5b00e08f5b008b00340013
:102130000d00e000e5ff3c00880037000c689000cf
:1021400081c6b300814f50000b00320006003c00f6
:102150000004e00008003200e6c05000814f50004b
:102160004e003a0004003700c1c6b300814f500052
:102170004a003a00210037000800e00004003a005d
:102180000c1090008d0120000000e00006003200dd
:10219000110009000e84d8000fb99700e2c0780042
:1021a000f1ef9f007d012000110009000e84d8008e
:1021b0000a003700110009000e04d8008d06e9005e
:1021c0000e81b900020454008fb8970061417c0071
:1021d00081fd2f008f80400082f07e000004780097
:1021e0000800e000020032000d00e000f1ff3c00ba
:1021f000cfc4de00614db90025003700e00f540068
:10220000e08f5c0004003a000c1090008d0120006b
:102210000000e000070032006171b9000800be0054
:10222000b50307008fb99700e3417800f3ef9f00f3
:102230007d0120006171b9000800be009e03070007
:102240000b0037006171b9000800be008b03070066
:102250008d06e90000f1b900020454000fba97009e
:10226000e4427c0084fd2f000f02420005f27e0054
:102270000004be00e00f5000e08f58000200320062
:102280000d00e000efff3c004fcdde008a05780036
:10229000089ebe000a96be0030003700e00f5400d2
:1022a000e08f5c00e00f5d00e08f5d0004003a000d
:1022b0000c1090008d0120000000e00009003200a9
:1022c0006172b900612bb9000800be000a01be00ae
:1022d000320407000fba970064427800f4ef9f00c1
:1022e0007d0120006172b900612bb9000800be00b9
:1022f0000a01be00220407000d0037006172b90018
:10230000612bb9000800be000a01be0027040700c7
:102310008d06e90000f2b900040454008fba97005a
:1023200065427c0085fd2f008f82420084f27e0092
:10233000009ebe000296be003c04be002c05be00fe
:10234000e00f5400e08f5c00e00f5d00e08f5d0067
:10235000020034000d00e000e8ff3c00e80f5700e9
:1023600010003a003c1090000038a3000d0032002d
:10237000f78f560006003e0085fd2f008f82420039
:10238000e5c07e0000c3b30080cf500005003200de
:102390008d06e90002c3b30081fd2f008f8040004d
:1023a00082f07e0078811600420e98007c0090003a
:1023b00083fd2f008f8141008d804100bbfc070011
:1023c0004c0890008c109000810f500006003d00da
:1023d00000805000300e98003c1090000040a1009a
:1023e000301698000f0037000100e0000d003d009e
:1023f000bc109000f4806000f08f500009003a009b
:102400002c119000ac089000810051003c09900014
:1024100082805000008050004240a900010034003a
:10242000300e98004f0778004f06be004f05be00e3
:102430004f04be00cf01b100000006000400fa0006
:10244000889fbe008a9fbe008c1f78000004780021
:1024500001067800a8149000280890008084540099
:10246000380890008084540048089000808454000c
:1024700058089000808454006808900080845400bc
:1024800078089000808454000002220090bf9f00d2
:1024900000032300a0bf9f00381090000028a30075
:1024a00015003a000900e000130034000905780027
:1024b0008a057800e20f5500010036002b0020004d
:1024c000c80190000b017800ee8057006800900072
:1024d00003000100600498000000e000aa00320040
:1024e000181090000b004000101498000b055500c8
:1024f0004240a900eeff3c00280990000200e000e5
:102500000c003400c80190008c0078006800900036
:1025100003000100600498008080eb000000e000f0
:102520009a00320098109000280890000080400027
:1025300010149800380d90000a00e00011003400db
:102540008a057800e20f5500010036002b002000bc
:10255000c80190000b017800ec80570068009000e3
:1025600003000100600498000000e00086003200d3
:10257000181090000b004000101498000b05550037
:10258000edff370008699000c808900050c6b300fe
:10259000804f510008003a000100e00015003400af
:1025a0005802900008099000980990006800900077
:1025b00004000100070037000100e0000d003400b6
:1025c000c801900001017800f800900068009000b8
:1025d00003000100600498008080eb000000e00030
:1025e0006a00320098109000480890000080400077
:1025f00010149800580d90000a00e00011003400fb
:102600008a057800e20f5500010036002b002000fb
:10261000c80190000b017800ec8057006800900022
:1026200003000100600498000000e0005600320042
:10263000181090000b004000101498000b05550076
:10264000edff3700086990006808900051c6b3009c
:10265000814f51000d003a000000e0001c003400e2
:1026600078019000c8089000010141006111b80094
:10267000828fd2008381d2005802900080007800bf
:102680006800900004000100090037000000e0002d
:102690000f00340078019000c808900081004100cc
:1026a000c80190000001780068009000030001005c
:1026b000600498008080eb000000e00033003200ee
:1026c0009810900068089000008040001014980056
:1026d000780d90000a00e000110034008a057800af
:1026e000e20f5500010036002b002000c8019000c9
:1026f0000b017800ec805700680090000300010097
:10270000600498000000e0001f00320018109000e4
:102710000b004000101498000b055500edff37002a
:10272000381090008000eb000028a3001700320052
:102730000900e0001500340009057800e28f54001c
:10274000010036002a002000c80190000a0178002c
:10275000ee805700680090000300010060049800bc
:102760000000e00008003200181090000a0040004d
:10277000101498008a8454004240a900eeff3c00e7
:102780008000eb00010037008080eb000100780042
:102790004f0678004f05be004f04be000080fa00cf
:1027a000000006000108780000000600e6874700e8
:1027b000889fbe008a9fbe008c9fbe008e1f78003f
:1027c00082bf9f0004047800029ab900f4b79f000a
:1027d0000400e000590032000fb997000200e00049
:1027e000570032000006be0004077800c8009000c1
:1027f00068009000808f50000400390008007800c5
:10280000910007000000e0003b0035000040200080
:10281000180060000a0032008e017800a20020003b
:102820000c00be00fa0107000005be000080750024
:10283000070032008c0455008904e80005003700c9
:102840008e0478000a0020000b00200001003700f1
:102850008e0478004801900068009000020050004b
:10286000890f500003003100800478000a00200026
:102870000b0020006111b800828fd2008381d2004a
:10288000090278000c00be00c401070009075700c8
:102890004800900009004000400498000a85750037
:1028a00004003200080078002c0007000000e0005f
:1028b00011003a000e00e0000f0032006148b8003d
:1028c000808fd2008180d2000000780000f0a1004b
:1028d0008c01d0000001d000028641004220a800f7
:1028e00081864e004200a9004220ae004200a800ae
:1028f0000c86d300bdff3700008020001800600068
:1029000002003200080078001400070000c0200018
:102910001800600002003200c801900063049800b3
:102920007fb097000e0750000fb997001100090003
:102930000287d80080017800010037008001eb0099
:10294000030078004f0778004f06be004f05be0019
:102950004f04be006f00b10000000600889fbe005b
:10296000000478000800e0000f003a008004eb004b
:10297000090478008800d000808820006100780079
:102980000000e00004003200f4ff07000000e00057
:1029900001003d008084eb000804e800e80f5400cb
:1029a000f4ff3a0025003700000022001800600004
:1029b0008004eb0021003200a80490000f003700d3
:1029c00009015100384090000000fb0089007800a8
:1029d00011f707000000e00007003c00280090000d
:1029e0004004980060049800500c98001890a000d3
:1029f0008084eb001100370080844400480190007f
:102a0000828f5400eeff39002800900040049800a7
:102a10009800780002c020000281600001003a00a6
:102a20003800900001e8a300020032006004980022
:102a300001003700500c98008004eb00090078007a
:102a40004f04be0000000600889fbe008a1f780069
:102a500000047800c8009000680190000000eb00be
:102a6000828f50003c0039001800780022002900b5
:102a700002016000e20f5100070032000120200037
:102a80000000e0000100350001202400008c7000ef
:102a90000080eb00300037000200260002006000da
:102aa000820f500009003a0038009000808f5000db
:102ab0000600390008007800a8ff070080007800b1
:102ac0000080eb000100e00023003a0018057800c8
:102ad00000c020000000650018003a00a804900023
:102ae0006002200008004000808f540013003a006c
:102af00000202000ef000700200498000000e00004
:102b000005003a0029049800490498008904e80067
:102b100039049800080037000a60a0000a0c780009
:102b2000400498000120200080804000310498007b
:102b3000400c9800500c98000c00070028009000f2
:102b400050049800380090006004980000002600af
:102b5000180c70000000eb004f0578004f04be0019
:102b6000000006008065210061003700881f7800a2
:102b7000888d20001804e00003003a00f9ff0700e8
:102b800020c0b300004c78004f047800000006001d
:102b9000889fbe0000047800080078006fff0700df
:102ba0008004780000042000180060000200320059
:102bb000280090005a0007000000eb002004980055
:102bc000384090000004e000050035000000fb00e4
:102bd00088f607000000e000010032008084eb006e
:102be000181090000000e00008003200ccf607004a
:102bf0000000e000010032008084eb00181090001b
:102c0000470007000000eb001014980000082000a7
:102c100018006000150032000001eb006000b800f1
:102c2000838820000202d00063027a00880f5200dd
:102c300005003a000000400081804800008041000b
:102c40000008eb000600370061004000e08048000b
:102c50000201e800e80f5000e08f5800f0ff3a0052
:102c6000080078002e0007000e003700000c7800e6
:102c700000c0eb00304498006002200008004000d3
:102c8000200498004004980050049800400c9800dc
:102c900060049800500c980070049800760044007e
:102ca000000c9800090078004f04be0000000600e8
:102cb000881f78000004eb006140b800e2ff2f009d
:102cc000f3ff2f000f0107006289200062007800e7
:102cd0000000e00001003200adff07000804e8003a
:102ce000e80f5400f4ff3a004f047800000006009b
:102cf000010020000100e000080032000100800017
:102d00000100e000050032008100e90001008800b8
:102d10008100d0000200800000b1780000000600b1
:102d20000000e0002f003200c0017800e38f510066
:102d30002c0036000308a3002a003a00b1468000a8
:102d40000100e00002003200810f50000400310059
:102d500011009800b0468800160037008200780005
:102d6000110190000200e00002003200800f5100cb
:102d7000faff39001102780084824000850f50006c
:102d800018003900808f520003003a008308420087
:102d900001007800070037000200e0000300320065
:102da00083014000830f51000e003900120098008b
:102db00090009800900090000100e00009003200af
:102dc00010014000828f500006003a00428d200022
:102dd0000009eb00100178001108410091009000fb
:102de0001100980000000600889fbe0000047800d3
:102df000a14680000100e0000200320001007800de
:102e00000d003700b1468000608d200004003700bf
:102e1000910f5400250036000180e80091009000d9
:102e20000100e000faff3a0010003700920f540052
:102e30001e0036000280e800100178000200e00069
:102e4000faff3a0011017800b1468000608d200041
:102e500004003700910f5400140036000180e80090
:102e600091009000828f5000faff3a00d94680000e
:102e7000888f540001003100880478000900780030
:102e8000360007000000e00004003a00888f54007c
:102e9000050032008904d100f5ff370009187800d9
:102ea0009fff0700d2ff37000000eb004f04be0079
:102eb00000000600881f7800630440000800a1009d
:102ec0008000eb00800f540021003600e30f540017
:102ed00001003e004800200008007800c2ff070003
:102ee0008000eb000000e000190032009000780044
:102ef0009101780064815100880f51000300310076
:102f00001101900002087800070037000881400096
:102f100002087800910190001301980010017800d8
:102f20001109140088087800100178000000eb00f7
:102f30000200e00004003200920190000300e00073
:102f4000010032000280e800a04688008180e8008d
:102f5000010078004f04780000000600800078002f
:102f60000000eb000100e0000500340001007800e3
:102f7000f4f50700e10f400001003a000000eb000b
:102f80000000060000c0da000000060000c0da0001
:102f90000000060000c0da00000006003400f8005f
:102fa0000203be00820270008502720002f0a600d9
:102fb00000f0a6008100e800a10188001500b20021
:102fc00008003200105978000402e9000d003200b8
:102fd00061004000fbff39003420ec0000002800b5
:102fe000f8ff3700101978000482e900050032006c
:102ff00062004000fbff39003420ec000000280094
:10300000f8ff37003400f9000601be00000006009a
:103010000300e00007003200a5018000a101880044
:1030200010427800a50188000402fb00820f5200c4
:10303000110032008301e900a5018000a101880090
:1030400010427800a50188000404e0000800320066
:10305000000278001000b00000026a004260af0079
:1030600000f0a0000482d2000180b000e8ff370029
:10307000000020000100200000000600839f68007f
:103080000100e00002003d0060001000e080180038
:103090000300e00002003d0060011100e081190022
:1030a000050007004f00e00002003b006000100038
:1030b000e0801800000006006022b8000602200030
:1030c0000000d0008180d2000482d2008582d2002c
:1030d0000000a0000202520083825a000300310067
:1030e0000202420083824a000000a1000603e900b8
:1030f000f3ff3a0000000600efff07000400be00e7
:1031000000000600020ab900001bb9000200b80066
:10311000810042008100430000000600889fbe003d
:103120008a9fbe0030044200b0844a0030054b0044
:1031300090854b006000b1000898be000a90be0068
:103140000440e10005c8e10006d0e10007d8e10035
:1031500002003100680040001008e8004f05be0082
:103160004f04be0000000600889fbe008a9fbe007c
:103170003004be002005be000418540005985c0011
:1031800006185d0007985d00110020000440e10072
:1031900005c8e10006d0e10007d8e10001003900d0
:1031a0008000eb00108810004f05be004f04be00e9
:1031b000000006001200fa00889fbe008a9fbe0031
:1031c0008c9fbe00e0b79f00f1b79f0082bf9f00b9
:1031d00093bf9f000605be000404be000000eb0084
:1031e000d0b79f00c0b79f00b0b79f00a0b79f00a7
:1031f00090b79f00000678005fb19700cfb09700ae
:10320000820141003fb097000200e00004003d0051
:10321000370007007e805700c0ff0700030037001b
:10322000330007007e805700cfff0700dfb697000e
:103230000d00e0000c0035006fb29700ffb2970060
:103240000fbb97009fbb97001000200001002000db
:103250006011b800000272008182720002037300e4
:10326000838373001b0007000c06e80001042000a4
:10327000810f5600e0ff3a000d00e00004003d0021
:103280000802be000a03be007e805700a3ff0700ad
:103290005fa897000000e00005003a001fb2970009
:1032a000afb297003fb39700cfb397000900070074
:1032b0006fb09700ffb097000fb997009fb99700c4
:1032c0004f06be004f05be004f04be000080fa004e
:1032d000000006000100070000000600a4b79f00e0
:1032e000b5b79f00c6b79f00d7b79f000000060084
:1032f0004f09de0082817100b3b79f004f01de00ed
:103300008180400082807000a1b79f008fb097003d
:103310004f09de00000040000200700090b79f00df
:103320007fa897004f01de008180400082807000fe
:1033300081b79f000d0007004f3ade0000004000fb
:1033400004007000f0af9f00080007000402420074
:1033500085824a0006034b0087834b00dfff07008e
:103360000802be000a03be00000006002fb297004c
:10337000bfb297004fb39700dfb39700000006007d
:10338000881f780018002000881f780089ff070038
:103390008f87e9004f04780000000600801feb00d3
:1033a00084ff07008f87e90000000600889fbe00a9
:1033b0008a9fbe00e00f5000e08f5800e00f5900d8
:1033c000e08f59000c003d006044b8006055b80023
:1033d0000000540081805c0002015d0083815d007b
:1033e000180020001500070008003d001800070025
:1033f0000004eb00050037000004eb000f0007009d
:1034000002003d001200070018002000dcff07004a
:103410000800e000060032006022b8006033b80007
:103420000000520081805a0002015b0083815b0032
:103430004f05be004f04be0000000600e00f520022
:10344000e08f5a00e00f5b00e08f5b000000060099
:103450006044b8006055b8000402540085825c00e6
:1034600006035d0087835d0000000600889fbe00a4
:103470008a9fbe008c1f7800e00f5000e08f58003c
:10348000e00f5900e08f59000d003d006044b80086
:103490006055b8000000540081805c0002015d00ae
:1034a00083815d001c0020000820e10009a8e100e4
:1034b0000ab0e1000bb8e1000d003d000800370044
:1034c0000006eb00e00f5200e08f5a00e00f5b00b7
:1034d000e08f5b0006003d006044b8006055b80016
:1034e0000402540085825c0006035d0087835d0052
:1034f000aaff07000c00e000060032006022b800be
:103500006033b8000000520081805a0002015b0065
:1035100083815b004f0678004f05be004f04be005c
:0435200000000600a1
:020000040000fa
:1035240025640000006d0000203a00002000000027
:1035340073000000000d000000200000002d0000ba
:103544002d4100004c410000524d0000000d0000d0
:103554002020000020200000202000002020000067
:103564002020000020200000202000002000000077
:10357400546900006d650000720a0000000000003c
:020000040000fa
:103584000000fa000080eb0060198800c902a9005d
:10359400c882a800c082a800c042a8006800a80091
:1035a4006820a8006bc0a8006000a8006020a800e4
:1035b40063c0a800610580000000270001007000be
:1035c400600588008660a9009660a8000080fa0063
:1035d400000006001e00fa009660a900640047007f
:1035e400520020008000eb0036f807006900470015
:1035f400520020008000eb0032f807006e00470004
:10360400f20020008000eb002ef8070033003700a2
:1036140001408000b0032000808f50002900320058
:10362400004080000000e800004088001140800055
:1036340064004700811f780021a92900811f7800b8
:1036440051f80700e48757000140800069004700f3
:10365400811f780021a92900811f78004af80700fa
:10366400e4875700e90047006e00470026f807008a
:103674006e0047002af80700ee0047000080400073
:103684005200200051a9290007f80700e400470070
:103694006e00470012f807006e00470020f807008c
:1036a400ee0047000080400022002000a1a929006c
:1036b400fdf70700d0a929002d0207006e0047007e
:1036c4002b020700cd02a80040062000dd020700ff
:1036d400cd02a90040062000da020700501680003f
:1036e400700060000000e0003d003a001016800009
:1036f400700060000000e0003b0032001016800003
:10370400640060000000e000c1ff3a0037003700a9
:1037140011408000b0032000808f50002900320047
:10372400104080000000e800104088001140800034
:1037340064004700811f780021a92900811f7800b7
:1037440011f80700e4875700014080006900470032
:10375400811f780021a92900811f78000af8070039
:10376400e4875700e90047006e004700e6f70700ca
:103774006e004700eaf70700ee00470000804000b3
:103784005200200051a92900c7f70700e4004700b0
:103794006e004700d2f707006e004700e0f707000d
:1037a400ee0047000080400022002000a1a929006b
:1037b400bdf70700d0a92900ed0107006e004700fe
:1037c400eb010700cd02a800400620009d0207007f
:1037d400cd02a900400620009a020700030037002a
:1037e40000000000010037000000000050168000b7
:1037f400700060000000e000080032001016800035
:10380400700060000000e00004003a001016800020
:10381400640060000000e000bdff3a000000eb001f
:10382400100798000000eb00000f78000e0037002e
:103834001e007800e20f500006003c00803e20008d
:10384400800207001e0fe8001000200020408800be
:10385400050037000428ef000028ef000228ef00dd
:10386400401f20007702070050168000700060009f
:103874000000e0009c003200101680007000600020
:103884000000e0009a00320010168000640060001e
:103894000000e000e6ff32009600370064004700b5
:1038a400520020008000eb0086f707006900470003
:1038b400520020008000eb0082f707006e004700f2
:1038c400f20020008000eb007ef70700114080002a
:1038d40064004700811f780021a92900811f780016
:1038e400a9f70700e48757000140800069004700fa
:1038f400811f780021a92900811f7800a2f7070001
:10390400e4875700e90047006e0047007ef7070090
:103914006e00470082f70700ee0047000080400079
:103924005200200051a929005ff70700e400470076
:103934006e0047006af707006e00470078f707003b
:10394400ee0047000080400022002000a1a92900c9
:1039540055f70700d0a92900850107006e0047002c
:1039640083010700f0a929008101070010408000ad
:103974000000e00029003a00004080000000e00060
:1039840026003a0010aa290079010700100020003f
:103994004040880050168000700060000000e00085
:1039a4000c003a0010168000700060000000e00077
:1039b4000800320010168000640060000000e0007f
:1039c400040032000428ef000828ef0090aa290020
:1039d4006701070050168000700060000000e000de
:1039e4000e00320010168000700060000000e0003d
:1039f4000a003a0010168000640060000000e00035
:103a0400060032000428ef000828ef00401f2000c1
:103a14000c02070090aa29005501070010408000fd
:103a24000000e00009003a00004080000000e000cf
:103a34000c003400b00320001040880000408000d7
:103a44000000e900004088000600370010408000b4
:103a54000000e00003003400104080000000e90092
:103a640010408800404080000000e0000a003a0056
:103a7400304080000000e00004003a00cd02a800bd
:103a8400100020003040880004003700cd02a90057
:103a94000628ef0001003700cd02a800c012200064
:103aa400e801070050168000700060000000e0008c
:103ab4001000320010168000700060000000e0006a
:103ac4000c00320010168000640060000000e0006a
:103ad40008003a000428ef000828ef00401f2000e7
:103ae400d801070003003700000000000100370080
:103af4000000000020408000e10f500067ff32000a
:103b0400270037001140800064004700811f7800bf
:103b140021a92900811f78001bf70700e4875700bb
:103b24000140800069004700811f780021a9290015
:103b3400811f780014f70700e4875700e900470065
:103b44006e004700f0f607006e004700f4f6070029
:103b5400ee004700008040005200200051a92900d7
:103b6400d1f60700e40047006e004700dcf60700ca
:103b74006e004700eaf60700ee00470000804000b0
:103b840022002000a1a92900c7f60700d0a9290016
:103b9400f70007006e004700f5000700cd02a900fa
:103ba40050168000700060000000e0000800320041
:103bb40010168000700060000000e0000400320075
:103bc40010168000640060000000e000cdff3a00a1
:103bd4000080fa00000006000000fa00c802a900f4
:103be400c822a800cc02a800800020008011880010
:103bf400113a800000002700808060000000260049
:103c0400808f500003003a00c0002000c0118800db
:103c140010003700113a8000000027008080600007
:103c240000002500808f500003003a00c0002000ef
:103c3400c011880007003700113a800000002700f7
:103c4400008060000000e00002003a0070062000de
:103c5400c011880000002a009011880087e0a900a4
:103c640091058000f0ff28008080600000002300a0
:103c7400010070009005880097e0a80087c0a900a3
:103c840091058000f08f2f000080600000a0a0004c
:103c94009005880097c0a90031e2a8003342a8002b
:103ca4000080fa00000006000400fa00004f7800cb
:103cb40011079800c8ff07000b0037000000000040
:103cc4009111800000202000008060000000e000ce
:103cd400fbff3a001e00fb00a01188001e009000ac
:103ce4000000e900100798001e0090000000e000aa
:103cf400f2ff3a0000000000911180000010200043
:103d0400008060000000e000fbff320031e2a90007
:103d14000080fa00000006000400fa001007980072
:103d24000040eb00104798001100200000c2b300cf
:103d3400ddff07001100200000c3b300daff070015
:103d44001100200080c7b300d7ff070030c0b300c4
:103d5400004f7800150037001e00fb004200dd0014
:103d64009e0090000008de00004078006f40600074
:103d7400104798001e409000e94f500004003400a2
:103d84001e4090007043b0001047980003003700b5
:103d94001e4090000043b00010479800110020001e
:103da4001e409000c0ff07001e4fe9001e4078002f
:103db4000004e000e8ff3d001100200000c2b30051
:103dc400b9ff07000000eb00100798000080fa001c
:103dd400000006000600fa0010079800210798006a
:103de4000040eb00104798001100200000c2b3000f
:103df400adff07001100200000c3b300aaff0700b5
:103e04001100200080c7b300a7ff070070c0b300f3
:103e1400004f78001b0037001e00fb004201dd004c
:103e24001e009000ae009000820178008301e9003a
:103e3400030033008100d1000080d300fbff370072
:103e4400004078006f406000104798001e409000ca
:103e5400e94f5000040034001e4090007043b0004d
:103e640010479800030037001e4090000043b00044
:103e740010479800110020001e4090008aff0700a0
:103e84001e4fe9001e4078000004e000e2ff3d0000
:103e94001100200000c2b30083ff07006000b800d7
:103ea40010079800210798000080fa00000006001f
:103eb4000800fa00889fbe00300798000040eb001d
:103ec400004f78001100200000c2b30076ff070005
:103ed4001e0037003e0090008000eb009af20700bd
:103ee4000004be001e80fb0064001000cf80de00d2
:103ef40092f207000001be0000002000011224001d
:103f04001af307000001be000800be002ef20700ed
:103f14006ff20700100798001e019000d0cc2c000f
:103f24000010b8004308de006a00b9000000780001
:103f340000005100404798004e4090000043b000fc
:103f44001100200058ff07001e4fe8001e407800b3
:103f5400e44f5000dfff36001100200000c2b30020
:103f640051ff07004f04be000080fa000000060065
:103f74000400fa00100798000000eb00000f78001e
:103f8400060037001e0090001e004000104078001c
:103f94001100200044ff07001e0fe8001e009000df
:103fa400dff507009e0f5000f6ff31000080fa0095
:043fb4000000060003
:020000040000fa
:103fb800000800000a000000000000000a080000d5
:103fc80002000000000000000c08000002000000d1
:103fd800000000000e0800000200000000000000c1
:103fe800ba0800001a00000002000000686a6c00ad
:103ff800747a4c0000000100000200000400080070
:1040080000100000000020002b2d230030000000cd
:104018009808000022000000020000003031320041
:1040280033343500363738003941420043444500bf
:104038004600300031323300343536003738390025
:1040480061626300646566000000000010080000fb
:10405800880000000200000001000000003608008f
:1040680037083600083608003608360008260800e3
:104078000000000000000000000000000000000038
:10408800000000000000000000000000000208001e
:1040980001015e00085f08005e085e00085e080017
:1040a8005e084e000800000000000000000000004c
:1040b80000000000000000000000000000000000f8
:1040c800000002000802020086088700088608002f
:1040d80086088600088608007608000000000000b0
:1040e80000000000000000000000000000000000c8
:1040f80000000000000000001008380008600800f8
:1041080000000000000000000000000000000000a7
:10411800d80800000200000000000000da080000d3
:10412800020000000200000004000000d4080000a3
:104138000400000000000000dc080000020000008d
:104148000200000001000000de080000020000007c
:0841580000000000000000005f
:020000040000fa
:104160000400fa00100798001e009000e80f5000ad
:1041700003003a000040eb00004f780010003700c9
:104180009e009000401f2000808f500003003a00e6
:1041900060c6b300004f7800090037009e00900011
:1041a00000022000808f500003003a0050c5b30089
:1041b000004f78000200370050c5b300004f780070
:1041c00011028000000e2000010070001002880023
:1041d000213a8000f08f2f0000806000203a880094
:1041e0001e01fb0080072000a1092000337420007d
:1041f00080497800814978008249780012002000c7
:10420000600420007105200023742000804978009c
:1042100081497800824978004207a8000000000028
:10422000103a8000610060000000e000fcff3a00ee
:1042300011028000f0f12f00008060001002880061
:104240000080fa00000006000200fa00000f78006b
:10425000213a80000070200001007000203a8800a0
:1042600011e1a9001021a90011a1a9008108800075
:10427000f0fc2f0000806000800888001061a90019
:10428000a7c0a80094e0a80084e0a9001e00780060
:10429000cf80de00aaf1070002002000a31f240047
:1042a000fff10700020020000300240047f107008f
:1042b00088f10700000078006008880011e1a8007c
:1042c0000140fe0011e1a9000080fa000000060094
:1042d0000000fa00c9e2a9004fe7a8004fa7a90013
:1042e0004f87a900713a8000f00f2f000080600016
:1042f000703a88000002200099ff0700a0ab290057
:104300001cff07000080eb00601988009dfc07007f
:08431000b1fc0700feff3700bd
:020000040000fa
:0200000401f009
:040010007f0000006d
:00000001FF
